{
  "contractName": "AddressBook",
  "abi": [
    {
      "constant": true,
      "inputs": [
        {
          "internalType": "address",
          "name": "_addr",
          "type": "address"
        }
      ],
      "name": "getAddressArray",
      "outputs": [
        {
          "internalType": "address[]",
          "name": "",
          "type": "address[]"
        }
      ],
      "payable": false,
      "stateMutability": "view",
      "type": "function"
    },
    {
      "constant": false,
      "inputs": [
        {
          "internalType": "address",
          "name": "addr",
          "type": "address"
        },
        {
          "internalType": "string",
          "name": "nameBook",
          "type": "string"
        }
      ],
      "name": "AddAddress",
      "outputs": [],
      "payable": false,
      "stateMutability": "nonpayable",
      "type": "function"
    },
    {
      "constant": false,
      "inputs": [
        {
          "internalType": "address",
          "name": "addr",
          "type": "address"
        }
      ],
      "name": "removeAddress",
      "outputs": [],
      "payable": false,
      "stateMutability": "nonpayable",
      "type": "function"
    },
    {
      "constant": true,
      "inputs": [
        {
          "internalType": "address",
          "name": "addrOwner",
          "type": "address"
        },
        {
          "internalType": "address",
          "name": "addr",
          "type": "address"
        }
      ],
      "name": "getNameBook",
      "outputs": [
        {
          "internalType": "string",
          "name": "",
          "type": "string"
        }
      ],
      "payable": false,
      "stateMutability": "view",
      "type": "function"
    }
  ],
  "bytecode": "0x608060405234801561001057600080fd5b50610a67806100206000396000f3fe608060405234801561001057600080fd5b506004361061004c5760003560e01c80634ba79dfe14610051578063a7ffad1914610095578063c760cd3214610170578063da97754e1461024d575b600080fd5b6100936004803603602081101561006757600080fd5b81019080803573ffffffffffffffffffffffffffffffffffffffff1690602001909291905050506102e6565b005b61016e600480360360408110156100ab57600080fd5b81019080803573ffffffffffffffffffffffffffffffffffffffff169060200190929190803590602001906401000000008111156100e857600080fd5b8201836020820111156100fa57600080fd5b8035906020019184600183028401116401000000008311171561011c57600080fd5b91908080601f016020809104026020016040519081016040528093929190818152602001838380828437600081840152601f19601f820116905080830192505050505050509192919290505050610623565b005b6101d26004803603604081101561018657600080fd5b81019080803573ffffffffffffffffffffffffffffffffffffffff169060200190929190803573ffffffffffffffffffffffffffffffffffffffff16906020019092919050505061075a565b6040518080602001828103825283818151815260200191508051906020019080838360005b838110156102125780820151818401526020810190506101f7565b50505050905090810190601f16801561023f5780820380516001836020036101000a031916815260200191505b509250505060405180910390f35b61028f6004803603602081101561026357600080fd5b81019080803573ffffffffffffffffffffffffffffffffffffffff169060200190929190505050610879565b6040518080602001828103825283818151815260200191508051906020019060200280838360005b838110156102d25780820151818401526020810190506102b7565b505050509050019250505060405180910390f35b60008060003373ffffffffffffffffffffffffffffffffffffffff1673ffffffffffffffffffffffffffffffffffffffff16815260200190815260200160002080549050905060008090505b8181101561061e576000803373ffffffffffffffffffffffffffffffffffffffff1673ffffffffffffffffffffffffffffffffffffffff168152602001908152602001600020818154811061038357fe5b9060005260206000200160009054906101000a900473ffffffffffffffffffffffffffffffffffffffff1673ffffffffffffffffffffffffffffffffffffffff168373ffffffffffffffffffffffffffffffffffffffff1614156106115760008190505b60018303811015610507576000803373ffffffffffffffffffffffffffffffffffffffff1673ffffffffffffffffffffffffffffffffffffffff168152602001908152602001600020600182018154811061043e57fe5b9060005260206000200160009054906101000a900473ffffffffffffffffffffffffffffffffffffffff166000803373ffffffffffffffffffffffffffffffffffffffff1673ffffffffffffffffffffffffffffffffffffffff16815260200190815260200160002082815481106104b257fe5b9060005260206000200160006101000a81548173ffffffffffffffffffffffffffffffffffffffff021916908373ffffffffffffffffffffffffffffffffffffffff16021790555080806001019150506103e7565b506000803373ffffffffffffffffffffffffffffffffffffffff1673ffffffffffffffffffffffffffffffffffffffff16815260200190815260200160002080548061054f57fe5b6001900381819060005260206000200160006101000a81549073ffffffffffffffffffffffffffffffffffffffff02191690559055600160003373ffffffffffffffffffffffffffffffffffffffff1673ffffffffffffffffffffffffffffffffffffffff16815260200190815260200160002060008473ffffffffffffffffffffffffffffffffffffffff1673ffffffffffffffffffffffffffffffffffffffff168152602001908152602001600020600061060c9190610945565b61061e565b8080600101915050610332565b505050565b6000803373ffffffffffffffffffffffffffffffffffffffff1673ffffffffffffffffffffffffffffffffffffffff1681526020019081526020016000208290806001815401808255809150509060018203906000526020600020016000909192909190916101000a81548173ffffffffffffffffffffffffffffffffffffffff021916908373ffffffffffffffffffffffffffffffffffffffff1602179055505080600160003373ffffffffffffffffffffffffffffffffffffffff1673ffffffffffffffffffffffffffffffffffffffff16815260200190815260200160002060008473ffffffffffffffffffffffffffffffffffffffff1673ffffffffffffffffffffffffffffffffffffffff168152602001908152602001600020908051906020019061075592919061098d565b505050565b6060600160008473ffffffffffffffffffffffffffffffffffffffff1673ffffffffffffffffffffffffffffffffffffffff16815260200190815260200160002060008373ffffffffffffffffffffffffffffffffffffffff1673ffffffffffffffffffffffffffffffffffffffff1681526020019081526020016000208054600181600116156101000203166002900480601f01602080910402602001604051908101604052809291908181526020018280546001816001161561010002031660029004801561086c5780601f106108415761010080835404028352916020019161086c565b820191906000526020600020905b81548152906001019060200180831161084f57829003601f168201915b5050505050905092915050565b60606000808373ffffffffffffffffffffffffffffffffffffffff1673ffffffffffffffffffffffffffffffffffffffff16815260200190815260200160002080548060200260200160405190810160405280929190818152602001828054801561093957602002820191906000526020600020905b8160009054906101000a900473ffffffffffffffffffffffffffffffffffffffff1673ffffffffffffffffffffffffffffffffffffffff16815260200190600101908083116108ef575b50505050509050919050565b50805460018160011615610100020316600290046000825580601f1061096b575061098a565b601f0160209004906000526020600020908101906109899190610a0d565b5b50565b828054600181600116156101000203166002900490600052602060002090601f016020900481019282601f106109ce57805160ff19168380011785556109fc565b828001600101855582156109fc579182015b828111156109fb5782518255916020019190600101906109e0565b5b509050610a099190610a0d565b5090565b610a2f91905b80821115610a2b576000816000905550600101610a13565b5090565b9056fea265627a7a7231582067e6daab7e07b38f588daef79bfeb533a82933d27174fb63fa5d8e4efcce235664736f6c63430005100032",
  "source": "// SPDX-License-Identifier: MIT\npragma solidity >= 0.5.0 < 0.9.0;\n\ncontract AddressBook {\n    mapping(address => address[]) private _addresses;\n\n    mapping(address => mapping(address => string)) private _namesBook;\n\n    function getAddressArray (address _addr) public  view returns (address[] memory) {\n        return _addresses[_addr];\n    }\n\n    function AddAddress(address addr, string memory nameBook) public {\n        _addresses[msg.sender].push(addr);\n        _namesBook[msg.sender][addr] = nameBook;\n    }\n\n    function removeAddress(address addr) public {\n        uint length = _addresses[msg.sender].length;\n        for(uint i=0; i<length; i++){\n            if(addr == _addresses[msg.sender][i]){\n                for(uint index=i ;index<length-1;index++ ){\n                    _addresses[msg.sender][index] = _addresses[msg.sender][index+1];\n                }\n                _addresses[msg.sender].pop();\n                delete _namesBook[msg.sender][addr];\n                break;\n\n            }\n        }\n\n    }\n\n    function getNameBook(address addrOwner, address addr) public view returns (string memory){\n        return _namesBook[addrOwner][addr];\n    }\n\n}",
  "sourcePath": "/home/amir/Desktop/truffle/contracts/AddressBook.sol",
  "compiler": {
    "name": "solc",
    "version": "0.5.16+commit.9c3226ce.Emscripten.clang"
  },
  "schemaVersion": "3.4.3",
  "updatedAt": "2022-02-01T09:24:46.269Z",
  "networkType": "ethereum",
  "devdoc": {
    "methods": {}
  },
  "userdoc": {
    "methods": {}
  }
}